{
  "transactions": [
    {
      "hash": "0x2894c518bd28d8b7ecf758b369a0eb2e47b19ca7403777aefc4be2af8b4dd5e1",
      "transactionType": "CREATE",
      "contractName": "Counter",
      "contractAddress": "0x11283E4B4468b5a1699d5a052108cf4fE3Da23E4",
      "function": null,
      "arguments": null,
      "transaction": {
        "type": "0x02",
        "from": "0xb370092982cd3ea334032a53326f57565d55a793",
        "gas": "0x234f4",
        "value": "0x0",
        "data": "0x608060405234801561001057600080fd5b5061010c806100206000396000f3fe6080604052348015600f57600080fd5b506004361060465760003560e01c80633fb5c1cb14604b5780638381f58a14605d578063d09de08a146077578063f2c9ecd814607d575b600080fd5b605b60563660046098565b600055565b005b606560005481565b60405190815260200160405180910390f35b605b6084565b6000546065565b60008054908060918360b0565b9190505550565b60006020828403121560a957600080fd5b5035919050565b60006001820160cf57634e487b7160e01b600052601160045260246000fd5b506001019056fea2646970667358221220d94632d57200076f5b1dacf4590f0327b0f6bd0fca96c08163eb457757d8ad5864736f6c63430008180033",
        "nonce": "0x2a",
        "accessList": []
      },
      "additionalContracts": [],
      "isFixedGasLimit": false
    },
    {
      "hash": "0x2c4b2302656d9ac62018cc2ae02c5f9f68d0a8ade600daf66416f04aa30be1cc",
      "transactionType": "CALL",
      "contractName": "src/Counter.sol:Counter",
      "contractAddress": "0x11283E4B4468b5a1699d5a052108cf4fE3Da23E4",
      "function": "setNumber(uint256)",
      "arguments": [
        "10"
      ],
      "transaction": {
        "type": "0x02",
        "from": "0xb370092982cd3ea334032a53326f57565d55a793",
        "to": "0x11283e4b4468b5a1699d5a052108cf4fe3da23e4",
        "gas": "0xeaab",
        "value": "0x0",
        "data": "0x3fb5c1cb000000000000000000000000000000000000000000000000000000000000000a",
        "nonce": "0x2b",
        "accessList": []
      },
      "additionalContracts": [],
      "isFixedGasLimit": false
    }
  ],
  "receipts": [
    {
      "transactionHash": "0x2894c518bd28d8b7ecf758b369a0eb2e47b19ca7403777aefc4be2af8b4dd5e1",
      "transactionIndex": "0x17",
      "blockHash": "0x6660710c52ccd3a63109ace01a60364895cc3e64cdb1f338f8b66a029c968429",
      "blockNumber": "0x5322a3",
      "from": "0xB370092982cD3eA334032a53326F57565D55a793",
      "to": null,
      "cumulativeGasUsed": "0x9480a",
      "gasUsed": "0x1b2a9",
      "contractAddress": "0x11283E4B4468b5a1699d5a052108cf4fE3Da23E4",
      "logs": [],
      "status": "0x1",
      "logsBloom": "0x00000000000000000000000000000000000000000000000000000000000000000000000000000000000000000000000000000000000000000000000000000000000000000000000000000000000000000000000000000000000000000000000000000000000000000000000000000000000000000000000000000000000000000000000000000000000000000000000000000000000000000000000000000000000000000000000000000000000000000000000000000000000000000000000000000000000000000000000000000000000000000000000000000000000000000000000000000000000000000000000000000000000000000000000000000000",
      "type": "0x2",
      "effectiveGasPrice": "0xb9922c2f"
    },
    {
      "transactionHash": "0x2c4b2302656d9ac62018cc2ae02c5f9f68d0a8ade600daf66416f04aa30be1cc",
      "transactionIndex": "0x18",
      "blockHash": "0x6660710c52ccd3a63109ace01a60364895cc3e64cdb1f338f8b66a029c968429",
      "blockNumber": "0x5322a3",
      "from": "0xB370092982cD3eA334032a53326F57565D55a793",
      "to": "0x11283E4B4468b5a1699d5a052108cf4fE3Da23E4",
      "cumulativeGasUsed": "0x9f1f0",
      "gasUsed": "0xa9e6",
      "contractAddress": null,
      "logs": [],
      "status": "0x1",
      "logsBloom": "0x00000000000000000000000000000000000000000000000000000000000000000000000000000000000000000000000000000000000000000000000000000000000000000000000000000000000000000000000000000000000000000000000000000000000000000000000000000000000000000000000000000000000000000000000000000000000000000000000000000000000000000000000000000000000000000000000000000000000000000000000000000000000000000000000000000000000000000000000000000000000000000000000000000000000000000000000000000000000000000000000000000000000000000000000000000000",
      "type": "0x2",
      "effectiveGasPrice": "0xb9922c2f"
    }
  ],
  "libraries": [],
  "pending": [],
  "returns": {},
  "timestamp": 1709987797,
  "chain": 11155111,
  "multi": false,
  "commit": "cefe91f"
}